{
  "_format": "hh-sol-artifact-1",
  "contractName": "XDCVault",
  "sourceName": "contracts/XDCVault.sol",
  "abi": [
    {
      "inputs": [],
      "stateMutability": "nonpayable",
      "type": "constructor"
    },
    {
      "inputs": [
        {
          "internalType": "string",
          "name": "_emailHash",
          "type": "string"
        },
        {
          "internalType": "string",
          "name": "_unlockCode",
          "type": "string"
        }
      ],
      "name": "claimXDC",
      "outputs": [],
      "stateMutability": "nonpayable",
      "type": "function"
    },
    {
      "inputs": [
        {
          "internalType": "string",
          "name": "_emailHash",
          "type": "string"
        },
        {
          "internalType": "uint256",
          "name": "_amount",
          "type": "uint256"
        },
        {
          "internalType": "string",
          "name": "_unlockCodeHash",
          "type": "string"
        }
      ],
      "name": "initiateTransfer",
      "outputs": [],
      "stateMutability": "nonpayable",
      "type": "function"
    },
    {
      "inputs": [],
      "name": "owner",
      "outputs": [
        {
          "internalType": "address",
          "name": "",
          "type": "address"
        }
      ],
      "stateMutability": "view",
      "type": "function"
    },
    {
      "inputs": [
        {
          "internalType": "string",
          "name": "",
          "type": "string"
        }
      ],
      "name": "transfers",
      "outputs": [
        {
          "internalType": "address",
          "name": "sender",
          "type": "address"
        },
        {
          "internalType": "uint256",
          "name": "amount",
          "type": "uint256"
        },
        {
          "internalType": "string",
          "name": "unlockCodeHash",
          "type": "string"
        },
        {
          "internalType": "bool",
          "name": "isClaimed",
          "type": "bool"
        }
      ],
      "stateMutability": "view",
      "type": "function"
    }
  ],
  "bytecode": "0x608060405234801561001057600080fd5b50336000806101000a81548173ffffffffffffffffffffffffffffffffffffffff021916908373ffffffffffffffffffffffffffffffffffffffff160217905550610c2f806100606000396000f3fe608060405234801561001057600080fd5b506004361061004c5760003560e01c80633a0f2f33146100515780635ab495641461006d57806384a1c233146100895780638da5cb5b146100bc575b600080fd5b61006b60048036038101906100669190610664565b6100da565b005b610087600480360381019061008291906106d0565b61029c565b005b6100a3600480360381019061009e9190610623565b6103e4565b6040516100b3949392919061096e565b60405180910390f35b6100c46104df565b6040516100d19190610953565b60405180910390f35b6001826040516100ea9190610925565b908152602001604051809103902060020160405160200161010b919061093c565b60405160208183030381529060405280519060200120816040516020016101329190610925565b6040516020818303038152906040528051906020012014610188576040517f08c379a000000000000000000000000000000000000000000000000000000000815260040161017f906109da565b60405180910390fd5b6001826040516101989190610925565b908152602001604051809103902060030160009054906101000a900460ff16156101f7576040517f08c379a00000000000000000000000000000000000000000000000000000000081526004016101ee906109fa565b60405180910390fd5b3373ffffffffffffffffffffffffffffffffffffffff166108fc6001846040516102219190610925565b9081526020016040518091039020600101549081150290604051600060405180830381858888f1935050505015801561025e573d6000803e3d6000fd5b50600180836040516102709190610925565b908152602001604051809103902060030160006101000a81548160ff0219169083151502179055505050565b813373ffffffffffffffffffffffffffffffffffffffff163110156102f6576040517f08c379a00000000000000000000000000000000000000000000000000000000081526004016102ed906109ba565b60405180910390fd5b60405180608001604052803373ffffffffffffffffffffffffffffffffffffffff168152602001838152602001828152602001600015158152506001846040516103409190610925565b908152602001604051809103902060008201518160000160006101000a81548173ffffffffffffffffffffffffffffffffffffffff021916908373ffffffffffffffffffffffffffffffffffffffff1602179055506020820151816001015560408201518160020190805190602001906103bb929190610503565b5060608201518160030160006101000a81548160ff021916908315150217905550905050505050565b6001818051602081018201805184825260208301602085012081835280955050505050506000915090508060000160009054906101000a900473ffffffffffffffffffffffffffffffffffffffff169080600101549080600201805461044990610b41565b80601f016020809104026020016040519081016040528092919081815260200182805461047590610b41565b80156104c25780601f10610497576101008083540402835291602001916104c2565b820191906000526020600020905b8154815290600101906020018083116104a557829003601f168201915b5050505050908060030160009054906101000a900460ff16905084565b60008054906101000a900473ffffffffffffffffffffffffffffffffffffffff1681565b82805461050f90610b41565b90600052602060002090601f0160209004810192826105315760008555610578565b82601f1061054a57805160ff1916838001178555610578565b82800160010185558215610578579182015b8281111561057757825182559160200191906001019061055c565b5b5090506105859190610589565b5090565b5b808211156105a257600081600090555060010161058a565b5090565b60006105b96105b484610a4b565b610a1a565b9050828152602081018484840111156105d157600080fd5b6105dc848285610aff565b509392505050565b600082601f8301126105f557600080fd5b81356106058482602086016105a6565b91505092915050565b60008135905061061d81610be2565b92915050565b60006020828403121561063557600080fd5b600082013567ffffffffffffffff81111561064f57600080fd5b61065b848285016105e4565b91505092915050565b6000806040838503121561067757600080fd5b600083013567ffffffffffffffff81111561069157600080fd5b61069d858286016105e4565b925050602083013567ffffffffffffffff8111156106ba57600080fd5b6106c6858286016105e4565b9150509250929050565b6000806000606084860312156106e557600080fd5b600084013567ffffffffffffffff8111156106ff57600080fd5b61070b868287016105e4565b935050602061071c8682870161060e565b925050604084013567ffffffffffffffff81111561073957600080fd5b610745868287016105e4565b9150509250925092565b61075881610ab7565b82525050565b61076781610ac9565b82525050565b600061077882610a90565b6107828185610a9b565b9350610792818560208601610b0e565b61079b81610bd1565b840191505092915050565b60006107b182610a90565b6107bb8185610aac565b93506107cb818560208601610b0e565b80840191505092915050565b600081546107e481610b41565b6107ee8186610aac565b94506001821660008114610809576001811461081a5761084d565b60ff1983168652818601935061084d565b61082385610a7b565b60005b8381101561084557815481890152600182019150602081019050610826565b838801955050505b50505092915050565b6000610863601483610a9b565b91507f496e73756666696369656e742062616c616e63650000000000000000000000006000830152602082019050919050565b60006108a3601383610a9b565b91507f496e76616c696420756e6c6f636b20636f6465000000000000000000000000006000830152602082019050919050565b60006108e3600f83610a9b565b91507f416c726561647920636c61696d656400000000000000000000000000000000006000830152602082019050919050565b61091f81610af5565b82525050565b600061093182846107a6565b915081905092915050565b600061094882846107d7565b915081905092915050565b6000602082019050610968600083018461074f565b92915050565b6000608082019050610983600083018761074f565b6109906020830186610916565b81810360408301526109a2818561076d565b90506109b1606083018461075e565b95945050505050565b600060208201905081810360008301526109d381610856565b9050919050565b600060208201905081810360008301526109f381610896565b9050919050565b60006020820190508181036000830152610a13816108d6565b9050919050565b6000604051905081810181811067ffffffffffffffff82111715610a4157610a40610ba2565b5b8060405250919050565b600067ffffffffffffffff821115610a6657610a65610ba2565b5b601f19601f8301169050602081019050919050565b60008190508160005260206000209050919050565b600081519050919050565b600082825260208201905092915050565b600081905092915050565b6000610ac282610ad5565b9050919050565b60008115159050919050565b600073ffffffffffffffffffffffffffffffffffffffff82169050919050565b6000819050919050565b82818337600083830152505050565b60005b83811015610b2c578082015181840152602081019050610b11565b83811115610b3b576000848401525b50505050565b60006002820490506001821680610b5957607f821691505b60208210811415610b6d57610b6c610b73565b5b50919050565b7f4e487b7100000000000000000000000000000000000000000000000000000000600052602260045260246000fd5b7f4e487b7100000000000000000000000000000000000000000000000000000000600052604160045260246000fd5b6000601f19601f8301169050919050565b610beb81610af5565b8114610bf657600080fd5b5056fea2646970667358221220f51bf76b69fc5c8b03ba369c4f6280a4ef643278c10459c0decd8b7027add02b64736f6c63430008000033",
  "linkReferences": {},
  "deployedLinkReferences": {}
}